{
  "contractName": "ProductsContract",
  "abi": [
    {
      "inputs": [],
      "stateMutability": "nonpayable",
      "type": "constructor"
    },
    {
      "anonymous": false,
      "inputs": [
        {
          "indexed": false,
          "internalType": "uint256",
          "name": "id",
          "type": "uint256"
        },
        {
          "indexed": false,
          "internalType": "string",
          "name": "title",
          "type": "string"
        },
        {
          "indexed": false,
          "internalType": "string",
          "name": "description",
          "type": "string"
        },
        {
          "indexed": false,
          "internalType": "string",
          "name": "expirationDate",
          "type": "string"
        },
        {
          "indexed": false,
          "internalType": "string",
          "name": "brand",
          "type": "string"
        },
        {
          "indexed": false,
          "internalType": "string",
          "name": "lote",
          "type": "string"
        },
        {
          "indexed": false,
          "internalType": "string",
          "name": "reasonForChange",
          "type": "string"
        },
        {
          "indexed": false,
          "internalType": "bool",
          "name": "published",
          "type": "bool"
        },
        {
          "indexed": false,
          "internalType": "uint256",
          "name": "createdAT",
          "type": "uint256"
        }
      ],
      "name": "ProductCreated",
      "type": "event"
    },
    {
      "anonymous": false,
      "inputs": [
        {
          "indexed": false,
          "internalType": "uint256",
          "name": "id",
          "type": "uint256"
        },
        {
          "indexed": false,
          "internalType": "string",
          "name": "title",
          "type": "string"
        },
        {
          "indexed": false,
          "internalType": "string",
          "name": "description",
          "type": "string"
        },
        {
          "indexed": false,
          "internalType": "string",
          "name": "expirationDate",
          "type": "string"
        },
        {
          "indexed": false,
          "internalType": "string",
          "name": "brand",
          "type": "string"
        },
        {
          "indexed": false,
          "internalType": "string",
          "name": "lote",
          "type": "string"
        },
        {
          "indexed": false,
          "internalType": "string",
          "name": "reasonForChange",
          "type": "string"
        },
        {
          "indexed": false,
          "internalType": "uint256",
          "name": "createdAT",
          "type": "uint256"
        }
      ],
      "name": "ProductDelete",
      "type": "event"
    },
    {
      "anonymous": false,
      "inputs": [
        {
          "indexed": false,
          "internalType": "uint256",
          "name": "id",
          "type": "uint256"
        },
        {
          "indexed": false,
          "internalType": "bool",
          "name": "published",
          "type": "bool"
        }
      ],
      "name": "ProductTogglePublished",
      "type": "event"
    },
    {
      "anonymous": false,
      "inputs": [
        {
          "indexed": false,
          "internalType": "uint256",
          "name": "id",
          "type": "uint256"
        },
        {
          "indexed": false,
          "internalType": "string",
          "name": "title",
          "type": "string"
        },
        {
          "indexed": false,
          "internalType": "string",
          "name": "description",
          "type": "string"
        },
        {
          "indexed": false,
          "internalType": "string",
          "name": "expirationDate",
          "type": "string"
        },
        {
          "indexed": false,
          "internalType": "string",
          "name": "brand",
          "type": "string"
        },
        {
          "indexed": false,
          "internalType": "string",
          "name": "lote",
          "type": "string"
        },
        {
          "indexed": false,
          "internalType": "string",
          "name": "reasonForChange",
          "type": "string"
        },
        {
          "indexed": false,
          "internalType": "uint256",
          "name": "createdAT",
          "type": "uint256"
        }
      ],
      "name": "ProductUpdate",
      "type": "event"
    },
    {
      "inputs": [
        {
          "internalType": "uint256",
          "name": "",
          "type": "uint256"
        }
      ],
      "name": "products",
      "outputs": [
        {
          "internalType": "uint256",
          "name": "id",
          "type": "uint256"
        },
        {
          "internalType": "string",
          "name": "title",
          "type": "string"
        },
        {
          "internalType": "string",
          "name": "description",
          "type": "string"
        },
        {
          "internalType": "string",
          "name": "expirationDate",
          "type": "string"
        },
        {
          "internalType": "string",
          "name": "brand",
          "type": "string"
        },
        {
          "internalType": "string",
          "name": "lote",
          "type": "string"
        },
        {
          "internalType": "string",
          "name": "reasonForChange",
          "type": "string"
        },
        {
          "internalType": "bool",
          "name": "published",
          "type": "bool"
        },
        {
          "internalType": "uint256",
          "name": "createdAT",
          "type": "uint256"
        }
      ],
      "stateMutability": "view",
      "type": "function",
      "constant": true
    },
    {
      "inputs": [],
      "name": "productsCounter",
      "outputs": [
        {
          "internalType": "uint256",
          "name": "",
          "type": "uint256"
        }
      ],
      "stateMutability": "view",
      "type": "function",
      "constant": true
    },
    {
      "inputs": [
        {
          "internalType": "string",
          "name": "_title",
          "type": "string"
        },
        {
          "internalType": "string",
          "name": "_description",
          "type": "string"
        },
        {
          "internalType": "string",
          "name": "_expirationDate",
          "type": "string"
        },
        {
          "internalType": "string",
          "name": "_brand",
          "type": "string"
        },
        {
          "internalType": "string",
          "name": "_lote",
          "type": "string"
        }
      ],
      "name": "createProduct",
      "outputs": [],
      "stateMutability": "nonpayable",
      "type": "function"
    },
    {
      "inputs": [
        {
          "internalType": "uint256",
          "name": "_id",
          "type": "uint256"
        }
      ],
      "name": "togglePublished",
      "outputs": [],
      "stateMutability": "nonpayable",
      "type": "function"
    },
    {
      "inputs": [
        {
          "internalType": "uint256",
          "name": "_id",
          "type": "uint256"
        },
        {
          "internalType": "string",
          "name": "_title",
          "type": "string"
        },
        {
          "internalType": "string",
          "name": "_description",
          "type": "string"
        },
        {
          "internalType": "string",
          "name": "_expirationDate",
          "type": "string"
        },
        {
          "internalType": "string",
          "name": "_brand",
          "type": "string"
        },
        {
          "internalType": "string",
          "name": "_lote",
          "type": "string"
        },
        {
          "internalType": "string",
          "name": "_reasonForChange",
          "type": "string"
        }
      ],
      "name": "updateProduct",
      "outputs": [],
      "stateMutability": "nonpayable",
      "type": "function"
    },
    {
      "inputs": [
        {
          "internalType": "uint256",
          "name": "_id",
          "type": "uint256"
        }
      ],
      "name": "deleteProduct",
      "outputs": [],
      "stateMutability": "nonpayable",
      "type": "function"
    }
  ],
  "bytecode": "0x6080604052600080553480156200001557600080fd5b50620001186040518060400160405280601381526020017f50726f647563746f20646520656a656d706c6f00000000000000000000000000815250604051806060016040528060238152602001620025f0602391396040518060400160405280601081526020017f466563686120646520656a656d706c6f000000000000000000000000000000008152506040518060400160405280601081526020017f4d6172636120646520656a656d706c6f000000000000000000000000000000008152506040518060400160405280600f81526020017f4c6f746520646520656a656d706c6f00000000000000000000000000000000008152506200011e60201b60201c565b62000641565b600080815480929190620001329062000581565b91905055506040518061012001604052806000548152602001868152602001858152602001848152602001838152602001828152602001604051806020016040528060008152508152602001600015158152602001428152506001600080548152602001908152602001600020600082015181600001556020820151816001019080519060200190620001c7929190620002e2565b506040820151816002019080519060200190620001e6929190620002e2565b50606082015181600301908051906020019062000205929190620002e2565b50608082015181600401908051906020019062000224929190620002e2565b5060a082015181600501908051906020019062000243929190620002e2565b5060c082015181600601908051906020019062000262929190620002e2565b5060e08201518160070160006101000a81548160ff02191690831515021790555061010082015181600801559050507f7187a69b4fd0be21bb803cdabea664262d1acd3661421c76385e3df6a88344f36000548686868686600042604051620002d39897969594939291906200041c565b60405180910390a15050505050565b828054620002f0906200054b565b90600052602060002090601f01602090048101928262000314576000855562000360565b82601f106200032f57805160ff191683800117855562000360565b8280016001018555821562000360579182015b828111156200035f57825182559160200191906001019062000342565b5b5090506200036f919062000373565b5090565b5b808211156200038e57600081600090555060010162000374565b5090565b6200039d81620004ff565b82525050565b6000620003b082620004e3565b620003bc8185620004ee565b9350620003ce81856020860162000515565b620003d9816200062d565b840191505092915050565b6000620003f3600083620004ee565b915062000400826200063e565b600082019050919050565b62000416816200050b565b82525050565b60006101208201905062000434600083018b6200040b565b818103602083015262000448818a620003a3565b905081810360408301526200045e8189620003a3565b90508181036060830152620004748188620003a3565b905081810360808301526200048a8187620003a3565b905081810360a0830152620004a08186620003a3565b905081810360c0830152620004b581620003e4565b9050620004c660e083018562000392565b620004d66101008301846200040b565b9998505050505050505050565b600081519050919050565b600082825260208201905092915050565b60008115159050919050565b6000819050919050565b60005b838110156200053557808201518184015260208101905062000518565b8381111562000545576000848401525b50505050565b600060028204905060018216806200056457607f821691505b602082108114156200057b576200057a620005fe565b5b50919050565b60006200058e826200050b565b91507fffffffffffffffffffffffffffffffffffffffffffffffffffffffffffffffff821415620005c457620005c3620005cf565b5b600182019050919050565b7f4e487b7100000000000000000000000000000000000000000000000000000000600052601160045260246000fd5b7f4e487b7100000000000000000000000000000000000000000000000000000000600052602260045260246000fd5b6000601f19601f8301169050919050565b50565b611f9f80620006516000396000f3fe608060405234801561001057600080fd5b50600436106100625760003560e01c80635b0769d6146100675780637acc0b2014610083578063a5296956146100bb578063d9ca9224146100d7578063ed90c7b7146100f3578063fc933e8f1461010f575b600080fd5b610081600480360381019061007c91906117d7565b61012d565b005b61009d600480360381019061009891906118de565b6102e1565b6040516100b299989796959493929190611b13565b60405180910390f35b6100d560048036038101906100d091906118de565b61066c565b005b6100f160048036038101906100ec919061190b565b610b7a565b005b61010d600480360381019061010891906118de565b6110df565b005b6101176116a9565b6040516101249190611acf565b60405180910390f35b60008081548092919061013f90611e54565b919050555060405180610120016040528060005481526020018681526020018581526020018481526020018381526020018281526020016040518060200160405280600081525081526020016000151581526020014281525060016000805481526020019081526020016000206000820151816000015560208201518160010190805190602001906101d29291906116af565b5060408201518160020190805190602001906101ef9291906116af565b50606082015181600301908051906020019061020c9291906116af565b5060808201518160040190805190602001906102299291906116af565b5060a08201518160050190805190602001906102469291906116af565b5060c08201518160060190805190602001906102639291906116af565b5060e08201518160070160006101000a81548160ff02191690831515021790555061010082015181600801559050507f7187a69b4fd0be21bb803cdabea664262d1acd3661421c76385e3df6a88344f360005486868686866000426040516102d2989796959493929190611c72565b60405180910390a15050505050565b600160205280600052604060002060009150905080600001549080600101805461030a90611df1565b80601f016020809104026020016040519081016040528092919081815260200182805461033690611df1565b80156103835780601f1061035857610100808354040283529160200191610383565b820191906000526020600020905b81548152906001019060200180831161036657829003601f168201915b50505050509080600201805461039890611df1565b80601f01602080910402602001604051908101604052809291908181526020018280546103c490611df1565b80156104115780601f106103e657610100808354040283529160200191610411565b820191906000526020600020905b8154815290600101906020018083116103f457829003601f168201915b50505050509080600301805461042690611df1565b80601f016020809104026020016040519081016040528092919081815260200182805461045290611df1565b801561049f5780601f106104745761010080835404028352916020019161049f565b820191906000526020600020905b81548152906001019060200180831161048257829003601f168201915b5050505050908060040180546104b490611df1565b80601f01602080910402602001604051908101604052809291908181526020018280546104e090611df1565b801561052d5780601f106105025761010080835404028352916020019161052d565b820191906000526020600020905b81548152906001019060200180831161051057829003601f168201915b50505050509080600501805461054290611df1565b80601f016020809104026020016040519081016040528092919081815260200182805461056e90611df1565b80156105bb5780601f10610590576101008083540402835291602001916105bb565b820191906000526020600020905b81548152906001019060200180831161059e57829003601f168201915b5050505050908060060180546105d090611df1565b80601f01602080910402602001604051908101604052809291908181526020018280546105fc90611df1565b80156106495780601f1061061e57610100808354040283529160200191610649565b820191906000526020600020905b81548152906001019060200180831161062c57829003601f168201915b5050505050908060070160009054906101000a900460ff16908060080154905089565b60006001600083815260200190815260200160002060405180610120016040529081600082015481526020016001820180546106a790611df1565b80601f01602080910402602001604051908101604052809291908181526020018280546106d390611df1565b80156107205780601f106106f557610100808354040283529160200191610720565b820191906000526020600020905b81548152906001019060200180831161070357829003601f168201915b5050505050815260200160028201805461073990611df1565b80601f016020809104026020016040519081016040528092919081815260200182805461076590611df1565b80156107b25780601f10610787576101008083540402835291602001916107b2565b820191906000526020600020905b81548152906001019060200180831161079557829003601f168201915b505050505081526020016003820180546107cb90611df1565b80601f01602080910402602001604051908101604052809291908181526020018280546107f790611df1565b80156108445780601f1061081957610100808354040283529160200191610844565b820191906000526020600020905b81548152906001019060200180831161082757829003601f168201915b5050505050815260200160048201805461085d90611df1565b80601f016020809104026020016040519081016040528092919081815260200182805461088990611df1565b80156108d65780601f106108ab576101008083540402835291602001916108d6565b820191906000526020600020905b8154815290600101906020018083116108b957829003601f168201915b505050505081526020016005820180546108ef90611df1565b80601f016020809104026020016040519081016040528092919081815260200182805461091b90611df1565b80156109685780601f1061093d57610100808354040283529160200191610968565b820191906000526020600020905b81548152906001019060200180831161094b57829003601f168201915b5050505050815260200160068201805461098190611df1565b80601f01602080910402602001604051908101604052809291908181526020018280546109ad90611df1565b80156109fa5780601f106109cf576101008083540402835291602001916109fa565b820191906000526020600020905b8154815290600101906020018083116109dd57829003601f168201915b505050505081526020016007820160009054906101000a900460ff1615151515815260200160088201548152505090508060e00151158160e00190151590811515815250508060016000848152602001908152602001600020600082015181600001556020820151816001019080519060200190610a799291906116af565b506040820151816002019080519060200190610a969291906116af565b506060820151816003019080519060200190610ab39291906116af565b506080820151816004019080519060200190610ad09291906116af565b5060a0820151816005019080519060200190610aed9291906116af565b5060c0820151816006019080519060200190610b0a9291906116af565b5060e08201518160070160006101000a81548160ff02191690831515021790555061010082015181600801559050507fcb9b8962fd992ea4e81fe586aa97202f9a52e9f85957018bff92c0610a881bdb828260e00151604051610b6e929190611aea565b60405180910390a15050565b6000600160008981526020019081526020016000206040518061012001604052908160008201548152602001600182018054610bb590611df1565b80601f0160208091040260200160405190810160405280929190818152602001828054610be190611df1565b8015610c2e5780601f10610c0357610100808354040283529160200191610c2e565b820191906000526020600020905b815481529060010190602001808311610c1157829003601f168201915b50505050508152602001600282018054610c4790611df1565b80601f0160208091040260200160405190810160405280929190818152602001828054610c7390611df1565b8015610cc05780601f10610c9557610100808354040283529160200191610cc0565b820191906000526020600020905b815481529060010190602001808311610ca357829003601f168201915b50505050508152602001600382018054610cd990611df1565b80601f0160208091040260200160405190810160405280929190818152602001828054610d0590611df1565b8015610d525780601f10610d2757610100808354040283529160200191610d52565b820191906000526020600020905b815481529060010190602001808311610d3557829003601f168201915b50505050508152602001600482018054610d6b90611df1565b80601f0160208091040260200160405190810160405280929190818152602001828054610d9790611df1565b8015610de45780601f10610db957610100808354040283529160200191610de4565b820191906000526020600020905b815481529060010190602001808311610dc757829003601f168201915b50505050508152602001600582018054610dfd90611df1565b80601f0160208091040260200160405190810160405280929190818152602001828054610e2990611df1565b8015610e765780601f10610e4b57610100808354040283529160200191610e76565b820191906000526020600020905b815481529060010190602001808311610e5957829003601f168201915b50505050508152602001600682018054610e8f90611df1565b80601f0160208091040260200160405190810160405280929190818152602001828054610ebb90611df1565b8015610f085780601f10610edd57610100808354040283529160200191610f08565b820191906000526020600020905b815481529060010190602001808311610eeb57829003601f168201915b505050505081526020016007820160009054906101000a900460ff161515151581526020016008820154815250509050868160200181905250858160400181905250848160600181905250838160800181905250828160a00181905250818160c00181905250428161010001818152505080600160008a8152602001908152602001600020600082015181600001556020820151816001019080519060200190610fb39291906116af565b506040820151816002019080519060200190610fd09291906116af565b506060820151816003019080519060200190610fed9291906116af565b50608082015181600401908051906020019061100a9291906116af565b5060a08201518160050190805190602001906110279291906116af565b5060c08201518160060190805190602001906110449291906116af565b5060e08201518160070160006101000a81548160ff02191690831515021790555061010082015181600801559050507f9ece9de958ba01e455e958b39555b3a27f3335f320942a3499a53544fd03420d8882602001518360400151846060015185608001518660a001518760c001518861010001516040516110cd989796959493929190611bca565b60405180910390a15050505050505050565b600060016000838152602001908152602001600020604051806101200160405290816000820154815260200160018201805461111a90611df1565b80601f016020809104026020016040519081016040528092919081815260200182805461114690611df1565b80156111935780601f1061116857610100808354040283529160200191611193565b820191906000526020600020905b81548152906001019060200180831161117657829003601f168201915b505050505081526020016002820180546111ac90611df1565b80601f01602080910402602001604051908101604052809291908181526020018280546111d890611df1565b80156112255780601f106111fa57610100808354040283529160200191611225565b820191906000526020600020905b81548152906001019060200180831161120857829003601f168201915b5050505050815260200160038201805461123e90611df1565b80601f016020809104026020016040519081016040528092919081815260200182805461126a90611df1565b80156112b75780601f1061128c576101008083540402835291602001916112b7565b820191906000526020600020905b81548152906001019060200180831161129a57829003601f168201915b505050505081526020016004820180546112d090611df1565b80601f01602080910402602001604051908101604052809291908181526020018280546112fc90611df1565b80156113495780601f1061131e57610100808354040283529160200191611349565b820191906000526020600020905b81548152906001019060200180831161132c57829003601f168201915b5050505050815260200160058201805461136290611df1565b80601f016020809104026020016040519081016040528092919081815260200182805461138e90611df1565b80156113db5780601f106113b0576101008083540402835291602001916113db565b820191906000526020600020905b8154815290600101906020018083116113be57829003601f168201915b505050505081526020016006820180546113f490611df1565b80601f016020809104026020016040519081016040528092919081815260200182805461142090611df1565b801561146d5780601f106114425761010080835404028352916020019161146d565b820191906000526020600020905b81548152906001019060200180831161145057829003601f168201915b505050505081526020016007820160009054906101000a900460ff161515151581526020016008820154815250509050604051806020016040528060008152508160200181905250604051806020016040528060008152508160400181905250604051806020016040528060008152508160600181905250604051806020016040528060008152508160800181905250604051806020016040528060008152508160a00181905250604051806020016040528060008152508160c0018190525060008160e0019015159081151581525050428161010001818152505080600160008481526020019081526020016000206000820151816000015560208201518160010190805190602001906115839291906116af565b5060408201518160020190805190602001906115a09291906116af565b5060608201518160030190805190602001906115bd9291906116af565b5060808201518160040190805190602001906115da9291906116af565b5060a08201518160050190805190602001906115f79291906116af565b5060c08201518160060190805190602001906116149291906116af565b5060e08201518160070160006101000a81548160ff02191690831515021790555061010082015181600801559050507f95eab632d62b2b26d2df110f88d425a88afe4c599d02a5e06c70d9d29871506f8282602001518360400151846060015185608001518660a001518760c0015188610100015160405161169d989796959493929190611bca565b60405180910390a15050565b60005481565b8280546116bb90611df1565b90600052602060002090601f0160209004810192826116dd5760008555611724565b82601f106116f657805160ff1916838001178555611724565b82800160010185558215611724579182015b82811115611723578251825591602001919060010190611708565b5b5090506117319190611735565b5090565b5b8082111561174e576000816000905550600101611736565b5090565b600061176561176084611d4c565b611d27565b90508281526020810184848401111561178157611780611f2f565b5b61178c848285611daf565b509392505050565b600082601f8301126117a9576117a8611f2a565b5b81356117b9848260208601611752565b91505092915050565b6000813590506117d181611f52565b92915050565b600080600080600060a086880312156117f3576117f2611f39565b5b600086013567ffffffffffffffff81111561181157611810611f34565b5b61181d88828901611794565b955050602086013567ffffffffffffffff81111561183e5761183d611f34565b5b61184a88828901611794565b945050604086013567ffffffffffffffff81111561186b5761186a611f34565b5b61187788828901611794565b935050606086013567ffffffffffffffff81111561189857611897611f34565b5b6118a488828901611794565b925050608086013567ffffffffffffffff8111156118c5576118c4611f34565b5b6118d188828901611794565b9150509295509295909350565b6000602082840312156118f4576118f3611f39565b5b6000611902848285016117c2565b91505092915050565b600080600080600080600060e0888a03121561192a57611929611f39565b5b60006119388a828b016117c2565b975050602088013567ffffffffffffffff81111561195957611958611f34565b5b6119658a828b01611794565b965050604088013567ffffffffffffffff81111561198657611985611f34565b5b6119928a828b01611794565b955050606088013567ffffffffffffffff8111156119b3576119b2611f34565b5b6119bf8a828b01611794565b945050608088013567ffffffffffffffff8111156119e0576119df611f34565b5b6119ec8a828b01611794565b93505060a088013567ffffffffffffffff811115611a0d57611a0c611f34565b5b611a198a828b01611794565b92505060c088013567ffffffffffffffff811115611a3a57611a39611f34565b5b611a468a828b01611794565b91505092959891949750929550565b611a5e81611d99565b82525050565b6000611a6f82611d7d565b611a798185611d88565b9350611a89818560208601611dbe565b611a9281611f3e565b840191505092915050565b6000611aaa600083611d88565b9150611ab582611f4f565b600082019050919050565b611ac981611da5565b82525050565b6000602082019050611ae46000830184611ac0565b92915050565b6000604082019050611aff6000830185611ac0565b611b0c6020830184611a55565b9392505050565b600061012082019050611b29600083018c611ac0565b8181036020830152611b3b818b611a64565b90508181036040830152611b4f818a611a64565b90508181036060830152611b638189611a64565b90508181036080830152611b778188611a64565b905081810360a0830152611b8b8187611a64565b905081810360c0830152611b9f8186611a64565b9050611bae60e0830185611a55565b611bbc610100830184611ac0565b9a9950505050505050505050565b600061010082019050611be0600083018b611ac0565b8181036020830152611bf2818a611a64565b90508181036040830152611c068189611a64565b90508181036060830152611c1a8188611a64565b90508181036080830152611c2e8187611a64565b905081810360a0830152611c428186611a64565b905081810360c0830152611c568185611a64565b9050611c6560e0830184611ac0565b9998505050505050505050565b600061012082019050611c88600083018b611ac0565b8181036020830152611c9a818a611a64565b90508181036040830152611cae8189611a64565b90508181036060830152611cc28188611a64565b90508181036080830152611cd68187611a64565b905081810360a0830152611cea8186611a64565b905081810360c0830152611cfd81611a9d565b9050611d0c60e0830185611a55565b611d1a610100830184611ac0565b9998505050505050505050565b6000611d31611d42565b9050611d3d8282611e23565b919050565b6000604051905090565b600067ffffffffffffffff821115611d6757611d66611efb565b5b611d7082611f3e565b9050602081019050919050565b600081519050919050565b600082825260208201905092915050565b60008115159050919050565b6000819050919050565b82818337600083830152505050565b60005b83811015611ddc578082015181840152602081019050611dc1565b83811115611deb576000848401525b50505050565b60006002820490506001821680611e0957607f821691505b60208210811415611e1d57611e1c611ecc565b5b50919050565b611e2c82611f3e565b810181811067ffffffffffffffff82111715611e4b57611e4a611efb565b5b80604052505050565b6000611e5f82611da5565b91507fffffffffffffffffffffffffffffffffffffffffffffffffffffffffffffffff821415611e9257611e91611e9d565b5b600182019050919050565b7f4e487b7100000000000000000000000000000000000000000000000000000000600052601160045260246000fd5b7f4e487b7100000000000000000000000000000000000000000000000000000000600052602260045260246000fd5b7f4e487b7100000000000000000000000000000000000000000000000000000000600052604160045260246000fd5b600080fd5b600080fd5b600080fd5b600080fd5b6000601f19601f8301169050919050565b50565b611f5b81611da5565b8114611f6657600080fd5b5056fea26469706673582212202068a523560fa1bc9f4a630b26b5cfdad179343798ab60275daf32a78645f83964736f6c63430008060033456a656d706c6f206465206465736372697063696f6e2064656c2070726f647563746f",
  "immutableReferences": {},
  "source": "// SPDX-License-Identifier: MIT\r\npragma solidity ^0.8.6;\r\n\r\ncontract ProductsContract {\r\n    uint256 public productsCounter = 0;\r\n\r\n    constructor () {\r\n        // Creamos un producto de ejemplo para el contrato\r\n        createProduct(\"Producto de ejemplo\", \"Ejemplo de descripcion del producto\", \"Fecha de ejemplo\", \"Marca de ejemplo\", \"Lote de ejemplo\");\r\n    }\r\n\r\n    struct Product {\r\n        uint id;\r\n        string title;\r\n        string description;\r\n        string expirationDate;\r\n        string brand;\r\n        string lote;\r\n        string reasonForChange;\r\n        bool published;\r\n        uint createdAT;\r\n    }\r\n\r\n    event ProductCreated(uint id, string title, string description, string expirationDate, string brand, string lote, string reasonForChange, bool published, uint createdAT);\r\n    event ProductTogglePublished(uint id, bool published);\r\n    event ProductUpdate(uint id, string title, string description, string expirationDate, string brand, string lote, string reasonForChange, uint createdAT);\r\n    event ProductDelete(uint id, string title, string description, string expirationDate, string brand, string lote, string reasonForChange, uint createdAT);\r\n\r\n    mapping(uint => Product) public products;\r\n\r\n    // Funcin para crear un producto\r\n    function createProduct(string memory _title, string memory _description, string memory _expirationDate, string memory _brand, string memory _lote) public {        \r\n        productsCounter++;\r\n        products[productsCounter] = Product(productsCounter, _title, _description, _expirationDate, _brand, _lote, \"\", false, block.timestamp);\r\n\r\n        emit ProductCreated(productsCounter, _title, _description, _expirationDate, _brand, _lote, \"\", false, block.timestamp);\r\n    }\r\n\r\n    // Funcin para actualizar el estado de un producto \r\n    function togglePublished(uint _id) public {\r\n        Product memory _product = products[_id];\r\n        _product.published = !_product.published;\r\n        \r\n        products[_id] = _product;\r\n\r\n        emit ProductTogglePublished(_id, _product.published);\r\n    }\r\n\r\n    // Funcin actualizar informacin de un producto\r\n    function updateProduct(uint _id, string memory _title, string memory _description, string memory _expirationDate, string memory _brand, string memory _lote, string memory _reasonForChange) public {\r\n        Product memory _product = products[_id];\r\n\r\n        _product.title = _title;\r\n        _product.description = _description;\r\n        _product.expirationDate = _expirationDate;\r\n        _product.brand = _brand;\r\n        _product.lote = _lote;\r\n        _product.reasonForChange = _reasonForChange;\r\n        _product.createdAT = block.timestamp;\r\n\r\n        products[_id] = _product;\r\n\r\n        emit ProductUpdate(_id, _product.title, _product.description, _product.expirationDate, _product.brand, _product.lote, _product.reasonForChange, _product.createdAT);\r\n    }\r\n\r\n    // Funcin eliminar producto\r\n    function deleteProduct(uint _id) public {\r\n        Product memory _product = products[_id];\r\n\r\n        _product.title = \"\";\r\n        _product.description = \"\";\r\n        _product.expirationDate = \"\";\r\n        _product.brand = \"\";\r\n        _product.lote = \"\";\r\n        _product.reasonForChange = \"\";\r\n        _product.published = false;\r\n        _product.createdAT = block.timestamp;\r\n        \r\n        products[_id] = _product;\r\n\r\n        emit ProductDelete(_id, _product.title, _product.description, _product.expirationDate, _product.brand, _product.lote, _product.reasonForChange, _product.createdAT);\r\n    }\r\n}",
  "sourcePath": "C:\\Users\\ADMIN\\Documents\\Visual Studio Code\\Solidity\\Tics\\Dapp-blockchain\\contracts\\ProductsContract.sol",
  "compiler": {
    "name": "solc",
    "version": "0.8.6+commit.11564f7e.Emscripten.clang"
  },
  "schemaVersion": "3.4.16",
  "updatedAt": "2024-12-10T07:24:34.968Z",
  "networkType": "ethereum",
  "devdoc": {
    "kind": "dev",
    "methods": {},
    "version": 1
  },
  "userdoc": {
    "kind": "user",
    "methods": {},
    "version": 1
  }
}